:10000000C3C20000E2C20000E0C20000DEC2000085
:10001000DCC20000DAC20000D8C20000D6C2000074
:10002000D4C20000D2C20000D0C20000CEC2000084
:10003000CCC20000CAC20000DFC500000AC6000032
:1000400035C6000060C600008BC60000B6C60000C2
:10005000E1C600000CC7000037C7000062C70000FF
:10006000B4C20000B2C20000B0C20000AEC20000C4
:10007000ACC20000AAC20000A8C20000A6C20000D4
:10008000A4C20000A2C20000A0C200009EC20000E4
:100090009CC200009AC2000098C2000096C20000F4
:1000A00094C2000092C2000090C200008EC2000004
:1000B0008CC200008AC2000088C200000C94800933
:1000C0000C94AD090C94DA090C94070A0C94340AC8
:1000D0000C94610A0C948E0A0C94BB0A0C94E80AE6
:1000E0000C94150B72C2000070C200006EC20000BA
:1000F0006CC200006AC2000068C2000066C2000054
:1001000064C2000062C2000060C200005EC2000063
:100110005CC200005AC2000058C2000056C2000073
:1001200054C2000052C2000050C200004EC2000083
:100130004CC2000023C700004EC7000079C7000072
:10014000A4C70000CFC70000FAC700000C94CC0879
:100150000C94F9080C9426090C94530936C200003B
:1001600034C2000032C2000030C200002EC20000C3
:100170002CC200002AC2000028C2000026C20000D3
:1001800024C2000022C2000020C200001EC20000E3
:100190001CC200001AC2000018C2000016C20000F3
:1001A00014C2000012C2000010C200000EC2000003
:1001B0000C94420B0C946F0B0C949C0B0C94C90B7D
:1001C0000C94F60B0C94230C00C20000FEC100003E
:1001D000FCC10000FAC10000F8C10000F6C1000037
:1001E000F4C10000F2C10000F0C10000EEC1000047
:1001F000ECC10000EAC10000E8C1000000407A1034
:10020000F35A00A0724E18090010A5D4E80000E8C7
:100210007648170000E40B54020000CA9A3B000025
:1002200000E1F505000080969800000040420F00B4
:100230000000A08601000000102700000000E80375
:10024000000000006400000000000A000000000040
:100250000100000000002C76D888DC674F0823DFFF
:10026000C1DFAE59E1B1B796E5E3E453C63AE651D2
:10027000997696E8E6C28426EB898C9B62ED407CF9
:100280006FFCEFBC9C9F40F2BAA56FA5F490055A95
:100290002AF75C936B6CF9676DC11BFCE0E40D47BA
:1002A000FEF520E6B500D0ED902E030094357705DD
:1002B0000080841E080000204E0A000000C80C3395
:1002C0003333330F986E12831141EF8D2114893B24
:1002D000E65516CFFEE6DB18D1844B381BF77C1DA4
:1002E000901DA4BBE424203284725E228100C9F1F7
:1002F00024ECA1E53D2700000000000000202020A4
:1003000020200020505050000000005050F850F8BD
:1003100050502078A07028F020C0C81020409818B5
:100320006090A040A890686020400000000010206D
:10033000404040201040201010102040005020F875
:10034000205000002020F820200000000000602045
:1003500040000000F80000000000000000606000A5
:10036000081020408000708898A8C88870206020FD
:1003700020202070708808102040F8F81020100805
:10038000887010305090F81010F880F008088870CD
:10039000304080F0888870F8081020404040708815
:1003A00088708888707088887808106000606000A5
:1003B0006060000060600060204008102040201055
:1003C000080000F800F800008040201020408070F5
:1003D00088081020002070880868A8A87070888895
:1003E00088F88888F08888F08888F0708880808015
:1003F0008870E09088888890E0F88080F08080F8AD
:10040000F88080E0808080708880809888708888FC
:1004100088F88888887020202020207038101010DC
:100420001090608890A0C0A090888080808080809C
:10043000F888D8A8888888888888C8A89888887004
:10044000888888888870F08888F0808080708888A4
:1004500088A89068F08888F0A090887880807008DC
:1004600008F0F8202020202020888888888888703C
:1004700088888888885020888888A8A8D88888880C
:10048000502050888888885020202020F80810208C
:100490004080F8382020202020380080402010089C
:1004A00000E02020202020E02050880000000000F4
:1004B0000000000000F84020100000000000007064
:1004C000087888788080B0C88888F00000708080C4
:1004D00088700808689888887800007088F88070AC
:1004E000304840E040404000007888780830808004
:1004F000B0C888888820006020202070100030104C
:1005000010906040404850605048602020202020DB
:10051000700000D0A8A888880000B0C8888888002B
:100520000070888888700000F088F0808000006883
:10053000987808080000B0C8808080000070807043
:1005400008F04040E04040483000008888889868C3
:100550000000888888502000008888A8A8500000E3
:100560008850205088000088887808700000F810B3
:100570002040F81020204020201020202020202083
:10058000204020201020204011241FBECFEFCDBFDF
:10059000DFE5DEBF00E00CBF10E2A0E0B0E2E6EF76
:1005A000F3E300E00BBF02C007900D92A831B10742
:1005B000D9F722E2A8E1B0E201C01D92AE36B2073F
:1005C000E1F70E94B1120C94F9191ACD04C06150E0
:1005D0007109810991096115710581059105B9F7C5
:1005E0000895BF92CF92DF92EF92FF920F931F93E5
:1005F000CF93DF931F92CDB7DEB700E016E068948B
:10060000FF24F3F8F801F68264E070E080E090E007
:10061000DDDFF801F58264E070E080E090E0D6DF95
:100620000F2EFBE2BF2EF02DB98280EA99E00E94E6
:10063000140FC12CD12C760100E412E42FE030E03D
:1006400043E0BE016F5F7F4F80EA99E00E94430F55
:1006500000E616E0FF24F394F801F682B982BE01A9
:100660006F5F7F4F80EA99E00E945D0FF801F6828C
:10067000E0EAF9E0818185FFFDCF80EA8093A0095F
:10068000E0EAF9E0818186FFFDCFE0EAF9E080E46D
:1006900081838081BE016F5F7F4F80EA99E00E9475
:1006A000730F8BE28983BE016F5F7F4F80EA99E011
:1006B0000E945D0F81E080936606E0EAF9E08181A7
:1006C00085FFFDCF86EA8093A009E0EAF9E0818109
:1006D00086FFFDCFE0EAF9E080E481838081BE01FE
:1006E0006F5F7F4F80EA99E00E94730F8BE28983EE
:1006F000BE016F5F7F4F80EA99E00E945D0F81E04D
:1007000080936606E0EAF9E0818185FFFDCF88EC01
:100710008093A009E0EAF9E0818186FFFDCFE0EA5D
:10072000F9E080E481838081BE016F5F7F4F80EAC2
:1007300099E00E94730F8BE28983BE016F5F7F4F48
:1007400080EA99E00E945D0F81E080936606E0EA0E
:10075000F9E0818185FFFDCF82EA8093A009E0EA7C
:10076000F9E0818186FFFDCFE0EAF9E080E4818352
:100770008081BE016F5F7F4F80EA99E00E94730F16
:100780008BE28983BE016F5F7F4F80EA99E00E9410
:100790005D0F81E080936606E0EAF9E0818185FFE4
:1007A000FDCF8FE28093A009E0EAF9E0818186FF26
:1007B000FDCFE0EAF9E080E481838081BE016F5FD4
:1007C0007F4F80EA99E00E94730F8BE28983BE011C
:1007D0006F5F7F4F80EA99E00E945D0F81E0809318
:1007E0006606E0EAF9E0818185FFFDCF88EF80931E
:1007F000A009E0EAF9E0818186FFFDCFE0EAF9E0B7
:1008000080E481838081BE016F5F7F4F80EA99E041
:100810000E94730F8BE28983BE016F5F7F4F80EA76
:1008200099E00E945D0F81E080936606E0EAF9E0BE
:10083000818185FFFDCF1092A009E0EAF9E0818176
:1008400086FFFDCFE0EAF9E080E481838081BE018C
:100850006F5F7F4F80EA99E00E94730F8BE289837C
:10086000BE016F5F7F4F80EA99E00E945D0F81E0DB
:1008700080936606E0EAF9E0818185FFFDCF81E2A1
:100880008093A009E0EAF9E0818186FFFDCFE0EAEC
:10089000F9E080E481838081BE016F5F7F4F80EA51
:1008A00099E00E94730F8BE28983BE016F5F7F4FD7
:1008B00080EA99E00E945D0F81E080936606E0EA9D
:1008C000F9E0818185FFFDCF81E88093A009E0EA0E
:1008D000F9E0818186FFFDCFE0EAF9E080E48183E1
:1008E0008081BE016F5F7F4F80EA99E00E94730FA5
:1008F0008BE28983BE016F5F7F4F80EA99E00E949F
:100900005D0F81E080936606E0EAF9E0818185FF72
:10091000FDCF81E28093A009E0EAF9E0818186FFC2
:10092000FDCFE0EAF9E080E481838081BE016F5F62
:100930007F4F80EA99E00E94730F8BE28983BE01AA
:100940006F5F7F4F80EA99E00E945D0F81E08093A6
:100950006606E0EAF9E0818185FFFDCF8FEA8093AA
:10096000A009E0EAF9E0818186FFFDCFE0EAF9E045
:1009700080E481838081BE016F5F7F4F80EA99E0D0
:100980000E94730F0F90DF91CF911F910F91FF90F5
:10099000EF90DF90CF90BF900895FF920F931F9339
:1009A000CF93DF931F92CDB7DEB7082FF62E142F0B
:1009B0000E948E0F0F70006B8BE28983BE016F5F08
:1009C0007F4F80EA99E00E945D0F81E08093660688
:1009D000E0EAF9E0918195FFFDCF0093A009E0EAFC
:1009E000F9E0818186FFFDCFE0EAF9E080E48183D0
:1009F0008081BE016F5F7F4F80EA99E00E94730F94
:100A00000F2D0F7702950F7000618BE28983BE0175
:100A10006F5F7F4F80EA99E00E945D0F81E08093D5
:100A20006606E0EAF9E0818185FFFDCF0093A00929
:100A3000E0EAF9E0818186FFFDCFE0EAF9E080E4B9
:100A400081838081BE016F5F7F4F80EA99E00E94C1
:100A5000730F0F2D0F708BE28983BE016F5F7F4F85
:100A600080EA99E00E945D0F81E080936606E0EAEB
:100A7000F9E0818185FFFDCF0093A009E0EAF9E06C
:100A8000818186FFFDCFE0EAF9E080E48183808107
:100A9000BE016F5F7F4F80EA99E00E94730F8BE287
:100AA0008983BE016F5F7F4F80EA99E00E945D0FEE
:100AB00081E080936506E0EAF9E0818185FFFDCF62
:100AC0001093A009E0EAF9E0818186FFFDCFE0EA1A
:100AD000F9E080E48183808181E080936606BE0135
:100AE0006F5F7F4F80EA99E00E94730F0F90DF9154
:100AF000CF911F910F91FF9008950F931F93CF9364
:100B0000DF931F92CDB7DEB788E190E20E94890F94
:100B100068DD8BE28983BE016F5F7F4F80EA99E0D9
:100B20000E945D0F81E080936606E0EAF9E0818132
:100B300085FFFDCF80E48093A009E0EAF9E08181A0
:100B400086FFFDCFE0EAF9E080E481838081BE0189
:100B50006F5F7F4F80EA99E00E94730F00E00AC048
:100B600040E0612F802F19DF1F5F1038C9F70F5F3A
:100B7000043011F010E0F4CF0F90DF91CF911F916E
:100B80000F910895FF920F931F93CF93DF938823C4
:100B900054F1603240F5D42FC82FF62EF694F69417
:100BA000F69470E088E0F89E60197109112481E0E4
:100BB00090E08C0102C0000F111F6A95E2F76C2FC4
:100BC0008F2D0E949C0FD13021F028F0D23031F0CF
:100BD00006C0802B04C00095802301C08027482FC9
:100BE0006C2F8F2DDADEDF91CF911F910F91FF9047
:100BF00008950C949C0F08951F920F920FB60F92B8
:100C000011240BB60F922F933F934F935F936F93E3
:100C10007F938F939F93AF93BF93EF93FF93E09155
:100C20005E22F0915F22309709F01995FF91EF91C4
:100C3000BF91AF919F918F917F916F915F914F91F4
:100C40003F912F910F900BBE0F900FBE0F901F90F2
:100C500018951F920F920FB60F9211240BB60F9298
:100C60002F933F934F935F936F937F938F939F93B4
:100C7000AF93BF93EF93FF93E0915C22F0915D22DD
:100C8000309709F01995FF91EF91BF91AF919F9126
:100C90008F917F916F915F914F913F912F910F9025
:100CA0000BBE0F900FBE0F901F9018951F920F92C2
:100CB0000FB60F9211240BB60F922F933F934F93C1
:100CC0005F936F937F938F939F93AF93BF93EF93B4
:100CD000FF93E0915A22F0915B22309709F0199529
:100CE000FF91EF91BF91AF919F918F917F916F9104
:100CF0005F914F913F912F910F900BBE0F900FBEC0
:100D00000F901F9018951F920F920FB60F921124FB
:100D10000BB60F922F933F934F935F936F937F93F5
:100D20008F939F93AF93BF93EF93FF93E0915822DC
:100D3000F0915922309709F01995FF91EF91BF91E9
:100D4000AF919F918F917F916F915F914F913F9163
:100D50002F910F900BBE0F900FBE0F901F90189504
:100D60001F920F920FB60F9211240BB60F922F9372
:100D70003F934F935F936F937F938F939F93AF9323
:100D8000BF93EF93FF93E0915622F0915722309753
:100D900009F01995FF91EF91BF91AF919F918F91BC
:100DA0007F916F915F914F913F912F910F900BBE6B
:100DB0000F900FBE0F901F9018951F920F920FB6B5
:100DC0000F9211240BB60F922F933F934F935F9383
:100DD0006F937F938F939F93AF93BF93EF93FF9303
:100DE000E0915422F0915522309709F01995FF9126
:100DF000EF91BF91AF919F918F917F916F915F9193
:100E00004F913F912F910F900BBE0F900FBE0F90FF
:100E10001F9018951F920F920FB60F9211240BB6C8
:100E20000F922F933F934F935F936F937F938F9383
:100E30009F93AF93BF93EF93FF93E0915222F09172
:100E40005322309709F01995FF91EF91BF91AF911F
:100E50009F918F917F916F915F914F913F912F91D2
:100E60000F900BBE0F900FBE0F901F9018951F9202
:100E70000F920FB60F9211240BB60F922F933F9340
:100E80004F935F936F937F938F939F93AF93BF9392
:100E9000EF93FF93E0915022F0915122309709F0A7
:100EA0001995FF91EF91BF91AF919F918F917F9194
:100EB0006F915F914F913F912F910F900BBE0F90CB
:100EC0000FBE0F901F9018951F920F920FB60F92A2
:100ED00011240BB60F922F933F934F935F936F9311
:100EE0007F938F939F93AF93BF93EF93FF93E09183
:100EF0004E22F0914F22309709F01995FF91EF9112
:100F0000BF91AF919F918F917F916F915F914F9121
:100F10003F912F910F900BBE0F900FBE0F901F901F
:100F200018951F920F920FB60F9211240BB60F92C5
:100F30002F933F934F935F936F937F938F939F93E1
:100F4000AF93BF93EF93FF93E0914C22F0914D222A
:100F5000309709F01995FF91EF91BF91AF919F9153
:100F60008F917F916F915F914F913F912F910F9052
:100F70000BBE0F900FBE0F901F9018951F920F92EF
:100F80000FB60F9211240BB60F922F933F934F93EE
:100F90005F936F937F938F939F93AF93BF93EF93E1
:100FA000FF93E0914A22F0914B22309709F0199576
:100FB000FF91EF91BF91AF919F918F917F916F9131
:100FC0005F914F913F912F910F900BBE0F900FBEED
:100FD0000F901F9018951F920F920FB60F92112429
:100FE0000BB60F922F933F934F935F936F937F9323
:100FF0008F939F93AF93BF93EF93FF93E09148221A
:10100000F0914922309709F01995FF91EF91BF9126
:10101000AF919F918F917F916F915F914F913F9190
:101020002F910F900BBE0F900FBE0F901F90189531
:101030001F920F920FB60F9211240BB60F922F939F
:101040003F934F935F936F937F938F939F93AF9350
:10105000BF93EF93FF93E0914622F09147223097A0
:1010600009F01995FF91EF91BF91AF919F918F91E9
:101070007F916F915F914F913F912F910F900BBE98
:101080000F900FBE0F901F9018951F920F920FB6E2
:101090000F9211240BB60F922F933F934F935F93B0
:1010A0006F937F938F939F93AF93BF93EF93FF9330
:1010B000E0914422F0914522309709F01995FF9173
:1010C000EF91BF91AF919F918F917F916F915F91C0
:1010D0004F913F912F910F900BBE0F900FBE0F902D
:1010E0001F9018951F920F920FB60F9211240BB6F6
:1010F0000F922F933F934F935F936F937F938F93B1
:101100009F93AF93BF93EF93FF93E0914222F091AF
:101110004322309709F01995FF91EF91BF91AF915C
:101120009F918F917F916F915F914F913F912F91FF
:101130000F900BBE0F900FBE0F901F9018951F922F
:101140000F920FB60F9211240BB60F922F933F936D
:101150004F935F936F937F938F939F93AF93BF93BF
:10116000EF93FF93E0914022F0914122309709F0F4
:101170001995FF91EF91BF91AF919F918F917F91C1
:101180006F915F914F913F912F910F900BBE0F90F8
:101190000FBE0F901F9018951F920F920FB60F92CF
:1011A00011240BB60F922F933F934F935F936F933E
:1011B0007F938F939F93AF93BF93EF93FF93E091B0
:1011C0003E22F0913F22309709F01995FF91EF915F
:1011D000BF91AF919F918F917F916F915F914F914F
:1011E0003F912F910F900BBE0F900FBE0F901F904D
:1011F00018951F920F920FB60F9211240BB60F92F3
:101200002F933F934F935F936F937F938F939F930E
:10121000AF93BF93EF93FF93E0913C22F0913D2277
:10122000309709F01995FF91EF91BF91AF919F9180
:101230008F917F916F915F914F913F912F910F907F
:101240000BBE0F900FBE0F901F9018951F920F921C
:101250000FB60F9211240BB60F922F933F934F931B
:101260005F936F937F938F939F93AF93BF93EF930E
:10127000FF93E0913A22F0913B22309709F01995C3
:10128000FF91EF91BF91AF919F918F917F916F915E
:101290005F914F913F912F910F900BBE0F900FBE1A
:1012A0000F901F9018951F920F920FB60F92112456
:1012B0000BB60F922F933F934F935F936F937F9350
:1012C0008F939F93AF93BF93EF93FF93E091382257
:1012D000F0913922309709F01995FF91EF91BF9164
:1012E000AF919F918F917F916F915F914F913F91BE
:1012F0002F910F900BBE0F900FBE0F901F9018955F
:101300001F920F920FB60F9211240BB60F922F93CC
:101310003F934F935F936F937F938F939F93AF937D
:10132000BF93EF93FF93E0913622F09137223097ED
:1013300009F01995FF91EF91BF91AF919F918F9116
:101340007F916F915F914F913F912F910F900BBEC5
:101350000F900FBE0F901F9018951F920F920FB60F
:101360000F9211240BB60F922F933F934F935F93DD
:101370006F937F938F939F93AF93BF93EF93FF935D
:10138000E0913422F0913522309709F01995FF91C0
:10139000EF91BF91AF919F918F917F916F915F91ED
:1013A0004F913F912F910F900BBE0F900FBE0F905A
:1013B0001F9018951F920F920FB60F9211240BB623
:1013C0000F922F933F934F935F936F937F938F93DE
:1013D0009F93AF93BF93EF93FF93E0913222F091ED
:1013E0003322309709F01995FF91EF91BF91AF919A
:1013F0009F918F917F916F915F914F913F912F912D
:101400000F900BBE0F900FBE0F901F9018951F925C
:101410000F920FB60F9211240BB60F922F933F939A
:101420004F935F936F937F938F939F93AF93BF93EC
:10143000EF93FF93E0913022F0913122309709F041
:101440001995FF91EF91BF91AF919F918F917F91EE
:101450006F915F914F913F912F910F900BBE0F9025
:101460000FBE0F901F9018951F920F920FB60F92FC
:1014700011240BB60F922F933F934F935F936F936B
:101480007F938F939F93AF93BF93EF93FF93E091DD
:101490002E22F0912F22309709F01995FF91EF91AC
:1014A000BF91AF919F918F917F916F915F914F917C
:1014B0003F912F910F900BBE0F900FBE0F901F907A
:1014C00018951F920F920FB60F9211240BB60F9220
:1014D0002F933F934F935F936F937F938F939F933C
:1014E000AF93BF93EF93FF93E0912C22F0912D22C5
:1014F000309709F01995FF91EF91BF91AF919F91AE
:101500008F917F916F915F914F913F912F910F90AC
:101510000BBE0F900FBE0F901F9018951F920F9249
:101520000FB60F9211240BB60F922F933F934F9348
:101530005F936F937F938F939F93AF93BF93EF933B
:10154000FF93E0912A22F0912B22309709F0199510
:10155000FF91EF91BF91AF919F918F917F916F918B
:101560005F914F913F912F910F900BBE0F900FBE47
:101570000F901F9018951F920F920FB60F92112483
:101580000BB60F922F933F934F935F936F937F937D
:101590008F939F93AF93BF93EF93FF93E091282294
:1015A000F0912922309709F01995FF91EF91BF91A1
:1015B000AF919F918F917F916F915F914F913F91EB
:1015C0002F910F900BBE0F900FBE0F901F9018958C
:1015D0001F920F920FB60F9211240BB60F922F93FA
:1015E0003F934F935F936F937F938F939F93AF93AB
:1015F000BF93EF93FF93E0912622F091272230973B
:1016000009F01995FF91EF91BF91AF919F918F9143
:101610007F916F915F914F913F912F910F900BBEF2
:101620000F900FBE0F901F9018951F920F920FB63C
:101630000F9211240BB60F922F933F934F935F930A
:101640006F937F938F939F93AF93BF93EF93FF938A
:10165000E0912422F0912522309709F01995FF910D
:10166000EF91BF91AF919F918F917F916F915F911A
:101670004F913F912F910F900BBE0F900FBE0F9087
:101680001F9018951F920F920FB60F9211240BB650
:101690000F922F933F934F935F936F937F938F930B
:1016A0009F93AF93BF93EF93FF93E0912222F0912A
:1016B0002322309709F01995FF91EF91BF91AF91D7
:1016C0009F918F917F916F915F914F913F912F915A
:1016D0000F900BBE0F900FBE0F901F9018951F928A
:1016E0000F920FB60F9211240BB60F922F933F93C8
:1016F0004F935F936F937F938F939F93AF93BF931A
:10170000EF93FF93E0912022F0912122309709F08E
:101710001995FF91EF91BF91AF919F918F917F911B
:101720006F915F914F913F912F910F900BBE0F9052
:101730000FBE0F901F9018951F920F920FB60F9229
:1017400011240BB60F922F933F934F935F936F9398
:101750007F938F939F93AF93BF93EF93FF93E0910A
:101760001E22F0911F22309709F01995FF91EF91F9
:10177000BF91AF919F918F917F916F915F914F91A9
:101780003F912F910F900BBE0F900FBE0F901F90A7
:1017900018951F920F920FB60F9211240BB60F924D
:1017A0002F933F934F935F936F937F938F939F9369
:1017B000AF93BF93EF93FF93E0911C22F0911D2212
:1017C000309709F01995FF91EF91BF91AF919F91DB
:1017D0008F917F916F915F914F913F912F910F90DA
:1017E0000BBE0F900FBE0F901F9018951F920F9277
:1017F0000FB60F9211240BB60F922F933F934F9376
:101800005F936F937F938F939F93AF93BF93EF9368
:10181000FF93E0911A22F0911B22309709F019955D
:10182000FF91EF91BF91AF919F918F917F916F91B8
:101830005F914F913F912F910F900BBE0F900FBE74
:101840000F901F9018951F920F920FB60F921124B0
:101850000BB60F922F933F934F935F936F937F93AA
:101860008F939F93AF93BF93EF93FF93E0911822D1
:10187000F0911922309709F01995FF91EF91BF91DE
:10188000AF919F918F917F916F915F914F913F9118
:101890002F910F900BBE0F900FBE0F901F901895B9
:1018A0001F93CF93DF931F921F92CDB7DEB72FB751
:1018B0002A83F8941A81282F392F211588E03807B8
:1018C00039F461E083E0D8D364E083E0D5D343C04A
:1018D000203488E0380739F462E083E0CDD364E057
:1018E00083E0CAD338C0211589E0380739F461E0B4
:1018F00084E0C2D364E084E0BFD32DC0203489E00B
:10190000380739F462E084E0B7D364E084E0B4D30C
:1019100022C021158AE0380739F461E085E0ACD3B4
:1019200064E085E0A9D317C020348AE0380739F491
:1019300062E085E0A1D364E085E09ED30CC0211570
:101940003B4039F461E086E097D364E086E094D3CD
:1019500002C01FBF10C0809169228F3F09F4FFCFE2
:101960008FB78983F8949981E8E6F2E281818F5FED
:1019700081839FBF1FBF0F900F90DF91CF911F9169
:101980000895811528E0920729F460935E227093F0
:101990005F220895803428E0920729F46093522250
:1019A000709353220895811529E0920729F46093DA
:1019B0004A2270934B220895803429E0920729F43B
:1019C00060933E2270933F22089581152AE092078A
:1019D00029F46093362270933722089580342AE0E8
:1019E000920729F460932A2270932B22089581157F
:1019F0009B4021F460932222709323220895CF927A
:101A0000DF92EF92FF920F931F93CF93DF93EC013E
:101A1000D901C801B695A795979587954817590795
:101A20006A077B0770F46A017B01CC0CDD1CEE1C9D
:101A3000FF1CC901B801A701960175D721503109D2
:101A400002C020E030E0832F8F708F832E83DF91E0
:101A5000CF911F910F91FF90EF90DF90CF9008955D
:101A6000DF92EF92FF920F931F93CF93DF931F921A
:101A7000CDB7DEB77C018B01009709F4B2C1803C81
:101A8000910521F460E180E0F7D2ABC180E8E8166F
:101A900081E0F80621F462E080E0EED2A2C1E11418
:101AA000E1E0FE0621F461E080E0E6D29AC1F0E8D0
:101AB000EF16F3E0FF0621F461E081E0DDD291C191
:101AC00030E9E31633E0F30621F461E082E0D4D29A
:101AD00088C1E11482E0F80621F462E081E0CCD212
:101AE00080C1E0E4EE16E2E0FE0621F462E082E06E
:101AF000C3D277C1F0E2EF16F3E0FF0621F464E011
:101B000082E0BAD26EC1E11438E0F30621F461E05C
:101B100083E0B2D266C1E11489E0F80621F461E005
:101B200084E0AAD25EC1E114EAE0FE0621F461E09D
:101B300085E0A2D256C1E114FBE0FF0621F461E08A
:101B400086E09AD24EC130E4E31638E0F30621F481
:101B500062E083E091D245C180E4E81689E0F806AE
:101B600021F462E084E088D23CC1E0E4EE16EAE0D1
:101B7000FE0621F462E085E07FD233C1F0E9EF1682
:101B8000F8E0FF0621F464E083E076D22AC130E970
:101B9000E31639E0F30621F464E084E06DD221C15C
:101BA00080E9E8168AE0F80621F464E085E064D272
:101BB00018C1E0E9EE16EBE0FE0621F464E086E0F1
:101BC0005BD20FC1F0ECEF16F8E0FF0621F468E0FD
:101BD00083E052D206C130ECE31639E0F30621F47B
:101BE00068E084E049D2FDC080EAE81688E0F806A3
:101BF00061F460E183E040D2E0EAF8E084818F7E26
:101C00008483F801248122504CC0F0EAEF16F9E0F9
:101C1000FF0621F460E184E02FD2E3C030EAE3164E
:101C20003AE0F30621F460E185E026D2DAC080EAEA
:101C3000E8168BE0F80621F460E186E01DD2D1C001
:101C4000E0EBEE16E8E0FE0621F460E283E014D259
:101C5000C8C0F0EBEF16F9E0FF0621F460E284E083
:101C60000BD2BFC030E8E31634E0F30621F460E4A1
:101C700083E002D2B6C080EAE81684E0F80621F4D8
:101C800060E485E0F9D1ADC0F70184818F7E848363
:101C9000FB0124812250C701F0EAEF16F8E0FF06AD
:101CA00049F480914E0684FDA5C00F2EF1E1DF2E90
:101CB000F02DA4C0803B38E0930791F0803AE9E032
:101CC0009E0749F430916E0634FD9BC00F2EF9E15A
:101CD000DF2EF02D16C0803BF9E09F07F1F004C025
:101CE0000F2EF5E1DF2EF02D803A3AE0930749F40C
:101CF00080918E0684FD8AC00F2EF1E2DF2EF02D3A
:101D000015C0803A9B4091F48091AE0684FD0AC0D4
:101D10000F2EF9E2DF2EF02D09C00F2EFDE1DF2E90
:101D2000F02D04C00F2EFDE2DF2EF02DED2DE695F7
:101D3000E695E69530E2E39FF0011124FA5F3D2D30
:101D4000377081E090E0032E02C0880F991F0A943B
:101D5000E2F78183223010F040E001C040E4DF016F
:101D60005096A30FB11D9FB79983F89439812C9198
:101D700027702C939C91942B9C933FBF8583F701F4
:101D80008581806C8583F80184818D7F813029F481
:101D9000F70185818260858304C0F70185818D7F8D
:101DA0008583F8018581882329F0F7018581846086
:101DB000858304C0F70185818B7F8583F80140818D
:101DC00051816281738100E814E82EE130E0C7019F
:101DD00016DEF70184818860848384818061848336
:101DE0001AC0F70184818F7E8483F80124812250F8
:101DF000C70160CF0F2EF5E1DF2EF02D80EA98E0CD
:101E00006ACF0F2EFDE1DF2EF02D7BCF0F2EF5E2F6
:101E1000DF2EF02D8BCF0F90DF91CF911F910F917F
:101E2000FF90EF90DF900895803A28E0920721F428
:101E300060E183E021C10895803B28E0920721F40E
:101E400060E283E019C10895803A29E0920721F405
:101E500060E184E011C10895803B29E0920721F4FC
:101E600060E284E009C10895803A2AE0920721F4F3
:101E700060E185E001C10895803A9B4019F460E17A
:101E800086E0FAC008950F931F93CF93DF9300D09D
:101E900000D0CDB7DEB709831A832B833C834D83F3
:101EA0001E82BE016F5F7F4FDBDD2696CDBFDEBF9A
:101EB000DF91CF911F910F910895FB018081E82F51
:101EC000E695E695E69540E2E49FF0011124FA5F7D
:101ED000877021E030E0A90102C0440F551F8A95A8
:101EE000E2F746830895FB018081E82FE695E695A9
:101EF000E69540E2E49FF0011124FA5F877021E04B
:101F000030E0A90102C0440F551F8A95E2F74583CE
:101F10000895809360229093612208952091602219
:101F20003091612290E8899F200D311D1124F90123
:101F3000E60FF11D408308952091602230916122C7
:101F400090E8899F200D311D1124F901E60FF11D44
:101F500080810895FF920F931F93CF93DF93E42F17
:101F6000F0E0E80FF11DE138F1051CF0C0E84C2F5E
:101F7000481B442309F450C0D62FD695D695D69544
:101F800070E098E0D99F601971091124E1E0F0E058
:101F9000DF0102C0AA0FBB1F6A95E2F7FA2E2130BB
:101FA00021F0A8F0223039F137C0C42F1FEF180FED
:101FB000012F0C0F602F8D2F0E94F9054F2D482BFC
:101FC000602F8D2F0E94CD04C15091F725C0C42FE2
:101FD0001FEF180FFA2EF094012F0C0F602F8D2F8A
:101FE0000E94F9054F2D4823602F8D2F0E94CD04AC
:101FF000C15091F711C0C42F1FEF180F012F0C0F04
:10200000602F8D2F0E94F9054F2D4827602F8D2FAF
:102010000E94CD04C15091F7DF91CF911F910F9194
:10202000FF900895FF920F931F93CF93DF93222386
:1020300069F0F42E182FC22FDFEFD60F6D2F6C0F23
:10204000202F4F2D812F86DFC150C1F7DF91CF9117
:102050001F910F91FF9008958FEF809370008093F0
:10206000710080937200809373008093740080935A
:102070007500809376000895CF93DF931F92CDB7BC
:10208000DEB79FB79983F8949981E82FF0E0E05983
:10209000FF4F60958081682360839FBF0F90DF9121
:1020A000CF910895AF92BF92CF92DF92EF92FF92BD
:1020B0000F931F93CF93DF93C82FE62EB42E6901A1
:1020C00000E0F901248143816B2D8E2DABDFF601F9
:1020D000808181113AC08381282F269526952695E7
:1020E000877009F02F5FF601A4808C2F90E0358176
:1020F000831B91092A9D90011124829FA001839F37
:10210000500D929F500D112401811281040F151F53
:10211000F601F380FF20A9F0D0E0C0E08E2D8C0FF7
:102120009C2F977021F4F801D4910F5F1F4FDD238E
:1021300024F441E06B2D0E94C205DD0FCF5FFC123D
:10214000EDCFB394AA94A110E3CFDF91CF911F916B
:102150000F91FF90EF90DF90CF90BF90AF900895D8
:10216000DF92EF92FF920F931F93CF93DF93D62EC0
:10217000042F7901EC01162F89918A3031F4F7018F
:1021800084818F5F080F1D2D09C08D3039F09701B4
:10219000402F612F87DFF7018381180F888181111C
:1021A000EBCFDF91CF911F910F91FF90EF90DF90D8
:1021B0000895CF93DF93FC0120E030E0C62FD0E0FC
:1021C000DE01022E02C0B595A7950A94E2F7A0FDA4
:1021D000508B2F5F3F4F31962830310589F740FFF4
:1021E0000AC041FF03C0FC01658302C0FC01668395
:1021F000FC01618302C0FC016283DF91CF910895ED
:1022000043E050E061E080EE97E0D3DF43E050E050
:1022100062E080EE97E0CDDF43E050E060E180E6F1
:1022200096E0C7DF41E050E460E280E696E0C1DF7F
:1022300040E05BE160E280E896E0BBDF40E05BE12C
:1022400062E080EA96E0B5DF40E05BE164E080EACE
:1022500096E0AFDF43E050E062E080E696E0A9DF81
:1022600043E050E068E080E696E0A3DF43E050E022
:1022700068E080EA96E09DDF43E050E061E080E6C0
:1022800096E097DF43E050E068E080E096E091DF81
:1022900041E050E060E180E896E08BDF43E050E011
:1022A00062E080E696E085DF43E050E068E080E6AB
:1022B00096E07FDF40E050E064E080E696E079DF82
:1022C00043E050E060E180EA96E073DF40E050E0F8
:1022D00061E080E096E06DDF40E050E064E080E0A7
:1022E00096E067DF40E050E062E080E296E061DF88
:1022F00043E050E068E080E496E05BDF40E050E0DF
:1023000064E080E496E055DF43E050E068E080E67A
:1023100096E04FDF40E050E064E080E696E049DF81
:1023200043E050E068E080E896E043DF40E050E0C2
:1023300064E080E896E03DCF08958091672288238D
:1023400039F080916422811103C081E080934706B7
:10235000089580E098E0A4DAE0E0F8E08181887FE9
:1023600081838FEF9FEF86A397A38081807F816019
:1023700080830895CF93DF9380E498E091DAC0E4FE
:10238000D8E08981887F89838881807F8560888380
:102390006DE971E180E498E0F4DA8E818C7F8E83C0
:1023A0008E8181608E83E0EAF0E0828181608283A9
:1023B00081E080934106DF91CF9108950F931F93A1
:1023C0006C3071058105910524F010926522109200
:1023D00066228B019C01015011092109310903304A
:1023E00011052105310518F52091662221111FC024
:1023F0002091652221111BC081E080936622809389
:1024000065228093642210926722809345068AEFAA
:1024100090E0E7E8F3E13197F1F700C000000197A1
:10242000C1F781E0809346061092642271C020912A
:10243000652221111DC06430710581059105C4F02C
:1024400066307105810591050CF058C081E08093DC
:10245000672280ED97E080936222909363228091BF
:10246000622290916322809366089093670850C01F
:102470002091652221111CC06630710581059105EE
:10248000BCF06930710581059105ECF581E0809320
:10249000672288E893E1809362229093632280917F
:1024A000622290916322809366089093670830C0FF
:1024B0002091652221111CC06930710581059105AB
:1024C000BCF06C3071058105910594F481E0809336
:1024D00067228CE49DE18093622290936322809135
:1024E000622290916322809366089093670810C0DF
:1024F0001092672281E0809346060AC020916522EF
:102500002111D6CFBECF209165222111F1CFD9CF95
:102510001F910F91089564307105810591056CF04C
:1025200066307105810591055CF0693071058105A2
:1025300091054CF084EF91E0089582E390E00895D6
:1025400086E990E008958CE291E00895009741F0CB
:10255000E3EFF1E03197F1F700C000000197C1F718
:102560000895CF93DF93CDB7DEB7C65DD109CDBF58
:10257000DEBF46DE71DD0E947D05789480E18093A8
:102580008506E7DEF7DE0F2EF0E2EF2EF6E0FF2EF7
:10259000F02DBB24B394C12C6894DD24D3F84E01F4
:1025A00029EC820E911C0F2EF7E04F2EF0E25F2EE9
:1025B000F02D0F2EF8ECAF2EF02DCE0101963C0140
:1025C000F701B182B68200C000C0B582F6E0FA958C
:1025D000F1F700C0F701B682B28206C0F60180A111
:1025E00091A181369A4E20F4F701808580FFF6CFC5
:1025F000F60120A131A106C0F60180A191A181368A
:102600009A4E20F4F701808580FDF6CFF60160A197
:1026100071A162177307C8F0621B730B80E090E032
:1026200091D028E23EE74CE85CE3F2D020E030E0D5
:1026300040E05FE3EDD055D0CD52DF4F6883798322
:102640008A839B83C35DD0401AC061507109621BAD
:10265000730B80E090E076D028E23EE74CE85CE344
:10266000D7D020E030E040E05FE3D2D03AD0CD5286
:10267000DF4F688379838A839B83C35DD040CD52CB
:10268000DF4F688179818A819B81C35DD0405CD0B6
:10269000840122E046E069D19F928F925F924F922F
:1026A0001F92AF927F926F927FD120E030E240E0A4
:1026B00060E0C30155DDCD52DF4F688179818A81A9
:1026C0009B81C35DD0407ADECD52DF4F6881798136
:1026D0008A819B81C35DD0401EDF38DFCDBFDEBF66
:1026E0006FCF04D06894B1118DC0089570D088F078
:1026F0009F5790F0B92F9927B751A0F0D1F0660FEE
:10270000771F881F991F1AF0BA95C9F712C0B13008
:1027100081F077D0B1E0089574C0672F782F8827B3
:10272000B85F39F0B93FCCF3869577956795B39547
:10273000D9F73EF490958095709561957F4F8F4FB6
:102740009F4F0895E89409C097FB3EF490958095BB
:10275000709561957F4F8F4F9F4F9923A9F0F92F67
:1027600096E9BB279395F695879577956795B795E5
:10277000F111F8CFFAF4BB0F11F460FF1BC06F5FCB
:102780007F4F8F4F9F4F16C0882311F096E911C0DD
:10279000772321F09EE8872F762F05C0662371F0FE
:1027A00096E8862F70E060E02AF09A95660F771F12
:1027B000881FDAF7880F9695879597F9089557FD42
:1027C0009058440F551F59F05F3F71F04795880F9F
:1027D00097FB991F61F09F3F79F087950895121636
:1027E00013061406551FF2CF4695F1DF08C01616E2
:1027F00017061806991FF1CF869571056105089493
:102800000895E894BB2766277727CB0197F90895A9
:102810000BD078C069D028F06ED018F0952309F05D
:102820005AC05FC01124EECFCADFA0F3959FD1F349
:10283000950F50E0551F629FF001729FBB27F00D6E
:10284000B11D639FAA27F00DB11DAA1F649F6627C3
:10285000B00DA11D661F829F2227B00DA11D621F12
:10286000739FB00DA11D621F839FA00D611D221FCC
:10287000749F3327A00D611D231F849F600D211DB0
:10288000822F762F6A2F11249F5750408AF0E1F053
:1028900088234AF0EE0FFF1FBB1F661F771F881F9C
:1028A00091505040A9F79E3F510570F014C0AACF37
:1028B0005F3FECF3983EDCF3869577956795B79587
:1028C000F795E7959F5FC1F7FE2B880F911D9695B1
:1028D000879597F9089597F99F6780E870E060E021
:1028E00008959FEF80EC089500240A9416161706A9
:1028F00018060906089500240A94121613061406F1
:1029000005060895092E0394000C11F4882352F053
:10291000BB0F40F4BF2B11F460FF04C06F5F7F4F0B
:102920008F4F9F4F0895A1E21A2EAA1BBB1BFD01DA
:102930000DC0AA1FBB1FEE1FFF1FA217B307E4079E
:10294000F50720F0A21BB30BE40BF50B661F771FF6
:10295000881F991F1A9469F76095709580959095D6
:102960009B01AC01BD01CF010895EF920F931F931E
:10297000CF93DF93E80147FD02C034E001C034E1AA
:10298000042E000C550B57FF03C05195419551097A
:10299000E32E022F242FAE0134D2CE01DF91CF914E
:1029A0001F910F91EF9008950F931F93CF93DF9393
:1029B000CDB7DEB72E97CDBFDEBF0E891F89888DBC
:1029C000998D26E02C8309831A8397FF02C080E04B
:1029D00090E801978D839E83AE01445E5F4F6A8DC0
:1029E0007B8DCE01019616D04D815E8157FD0AC0C8
:1029F0002F813885421753070CF49A01F801E20F32
:102A0000F31F10822E96CDBFDEBFDF91CF911F91B5
:102A10000F9108952F923F924F925F926F927F9203
:102A20008F929F92AF92BF92CF92DF92EF92FF92DE
:102A30000F931F93CF93DF93CDB7DEB72B97CDBF07
:102A4000DEBF6C017B018A01FC0116821782838143
:102A500081FFBFC1CE0101963C01F6019381F701D0
:102A600093FD859193FF81917F01882309F4ADC186
:102A7000853239F493FD859193FF81917F018532F1
:102A800021F4B60190E01BD4E8CF912C212C312CFD
:102A9000FFE1F315D8F08B3279F038F4803279F019
:102AA0008332A1F4232D20611DC08D3261F080336B
:102AB00069F4232D216016C0832D8260382EE32D0A
:102AC000E4603E2E2AC0F32DF8601DC037FC2DC0F7
:102AD00020ED280F2A3040F08E32B9F436FC75C153
:102AE000232D2064322E19C036FE06C08AE0989E3F
:102AF000200D1124922E11C0EAE02E9E200D1124EB
:102B0000222EF32DF0623F2E08C08C3621F4832D47
:102B10008068382E02C0883641F4F70193FD859114
:102B200093FF81917F018111B3CF982F9F7D9554A1
:102B3000933028F40C5F1F4F9FE399830DC08336B9
:102B400031F0833771F0833509F055C020C0F801AA
:102B5000808189830E5F1F4F88248394912C5301B9
:102B600012C02801F2E04F0E511CF801A080B18084
:102B700036FE03C0692D70E002C06FEF7FEFC50124
:102B800093D34C018201F32DFF773F2E15C028010E
:102B900022E0420E511CF801A080B18036FE03C035
:102BA000692D70E002C06FEF7FEFC50172D34C0159
:102BB000F32DF0683F2E820133FC19C0822D90E086
:102BC00088169906A0F4B60180E290E078D32A94A2
:102BD000F5CFF50137FC859137FE81915F01B60194
:102BE00090E06DD321102A9421E0821A910881147B
:102BF000910479F7E1C0843611F0893639F5F8018E
:102C000037FE07C060817181828193810C5F1F4F05
:102C100008C060817181072E000C880B990B0E5F34
:102C20001F4FF32DFF763F2E97FF09C0909580959B
:102C3000709561957F4F8F4F9F4FF0683F2E2AE030
:102C400030E0A30178D3882E861844C0853731F44C
:102C5000232D2F7EB22E2AE030E025C0932D997FC0
:102C6000B92E8F36C1F018F4883579F0AEC08037B0
:102C700019F0883721F0A9C0E92FE061BE2EB4FE1B
:102C80000DC0FB2DF460BF2E09C034FE0AC0292FF1
:102C90002660B22E06C028E030E005C020E130E01A
:102CA00002C020E132E0F801B7FE07C06081718107
:102CB000828193810C5F1F4F06C06081718180E02B
:102CC00090E00E5F1F4FA30136D3882E8618FB2D90
:102CD000FF773F2E36FE0DC0232D2E7FA22E8914A6
:102CE00058F434FE0BC032FC09C0832D8E7EA82E12
:102CF00005C0B82CA32C03C0B82C01C0B92CA4FE6D
:102D00000FC0FE01E80DF11D8081803321F49A2D62
:102D1000997EA92E09C0A2FE06C0B394B39404C044
:102D20008A2D867809F0B394A3FC10C0A0FE06C0DB
:102D3000B21480F4280C922C9B180DC0B21458F4D5
:102D4000B60180E290E0BBD2B394F8CFB21418F48D
:102D50002B1802C0982C212CA4FE0FC0B60180E3D2
:102D600090E0ADD2A2FE16C0A1FC03C088E790E0BF
:102D700002C088E590E0B6010CC08A2D867851F03B
:102D8000A1FE02C08BE201C080E2A7FC8DE2B60189
:102D900090E095D2891430F4B60180E390E08FD2B0
:102DA0009A94F8CF8A94F301E80DF11D8081B60161
:102DB00090E085D28110F6CF222009F44ECEB601E4
:102DC00080E290E07CD22A94F7CFF6018681978149
:102DD00002C08FEF9FEF2B96CDBFDEBFDF91CF916B
:102DE0001F910F91FF90EF90DF90CF90BF90AF9029
:102DF0009F908F907F906F905F904F903F902F901B
:102E000008958F929F92AF92BF92CF92DF92EF92EE
:102E1000FF920F931F93CF93DF93CDB7DEB7299720
:102E2000CDBFDEBF6A01122FB02E2BE3201720F09A
:102E3000FF24F394F00E02C02CE3F22E0F2D27E0B6
:102E4000AE014F5F5F4F4DD1BC014981842F897026
:102E5000813031F0E1FC06C0E0FE06C090E205C022
:102E60009DE203C09BE201C090E05E2D507143FFE4
:102E70003CC0911102C083E001C084E0811718F4C6
:102E8000212F281B01C020E051110BC0F601822F19
:102E900030E2882319F031938150FBCFC20ED11C50
:102EA00020E0992329F0D6019C93F60131966F0119
:102EB000C6010396E2FE0AC03EE4D6013C9341E41B
:102EC00011964C93119712963C9306C03EE6F6017C
:102ED000308341E641833283FC01322F40E23323C9
:102EE00009F442C041933150FACF42FF44C09111DE
:102EF00002C083E001C084E0811718F4212F281B51
:102F000001C020E051110BC0F601822F30E288236E
:102F100019F031938150FBCFC20ED11C20E09923D0
:102F200029F0D6019C93F60131966F01C6010396F4
:102F3000E2FE0BC039E4D6013C933EE411963C938B
:102F4000119736E412963C9307C039E6F6013083B8
:102F50003EE6318336E63283FC01322F40E23323F2
:102F600019F041933150FBCFFC01E20FF11D1082AB
:102F70008EEF9FEFA6C021E030E0911102C020E06B
:102F800030E0161617061CF4FB01319602C0E1E092
:102F9000F0E02E0F3F1FBB2021F0EB2DF0E031962B
:102FA00002C0E0E0F0E02E0F3F1FE12FF0E02E170F
:102FB0003F071CF4121B212F01C020E08E2D8871C9
:102FC00059F4F601822F30E2882319F031938150B1
:102FD000FBCFC20ED11C20E0992329F0D6019C938F
:102FE000F60131966F0151110BC0F601822F90E36B
:102FF000882319F091938150FBCFC20ED11C20E0A1
:103000000F2D060F9A81342F307144FF03C0913386
:1030100009F40150101624F4093018F008E001C03A
:1030200001E0AB0177FF02C040E050E0FB01E41B90
:10303000F50BA1E0B0E0AC0FBD1FEA0FFB1F8EE265
:10304000A82E4B01801A91080B2D10E011950195C7
:1030500011094F3FBFEF5B0721F4D601AC921196E7
:103060006D01641775072CF08416950614F48181A0
:1030700001C080E3415051093196D60111967D017E
:103080004017510724F0D6018C936701E2CF6417F3
:10309000750739F4963320F4953319F4311101C0D2
:1030A00081E3F6018083F701822F90E2882319F0F3
:1030B00091938150FBCFF701E20FF11D108280E068
:1030C00090E02996CDBFDEBFDF91CF911F910F9188
:1030D000FF90EF90DF90CF90BF90AF909F908F9038
:1030E0000895283008F027E03327DA01990F311DC1
:1030F00087FD916000966105710539F432602E5F9D
:103100003D9330E32A95E1F708959F3F30F08038F2
:103110007105610509F03C5F3C5F3D93913008F01B
:103120008068911DDF93CF931F930F93FF92EF92CF
:10313000192F987F9695E92F96959695E90FFF2779
:10314000EA5AFD4F99273327EE24FF24A701E70110
:1031500005900894079428F4360FE71EF81E491FBF
:10316000511D660F771F881F991F0694A1F70590C0
:10317000079428F4E70EF81E491F561FC11D770F4C
:10318000881F991F661F0694A1F70590079428F4DD
:10319000F80E491F561FC71FD11D880F991F661FA4
:1031A000771F0694A1F70590079420F4490F561F46
:1031B000C71FD81F990F661F771F881F0694A9F78E
:1031C00084911095177041F0D695C79557954795FE
:1031D000F794E7941A95C1F7ECEFF1E06894159035
:1031E000159135916591959105907FE27395E11860
:1031F000F10A430B560BC90BD009C0F7E10CF11EC5
:10320000431F561FC91FD01D7EF4703311F48A95D9
:10321000E6CFE894015030F0080F0AF400270217B7
:1032200008F4202F2395022F7A3328F079E37D9339
:103230002A95E9F710C07D932A9589F6069497950B
:103240006795379517951794E118F10A430B560BBC
:10325000C90BD00998F023957E9173957A3308F0C5
:1032600070E37C932013B8F77E9170617D9330F00A
:10327000839571E37D9370E32A95E1F71124EF9034
:10328000FF900F911F91CF91DF91992787FD909526
:103290000895FC010590615070400110D8F78095A9
:1032A00090958E0F9F1F0895FC0161507040019012
:1032B0000110D8F7809590958E0F9F1F08950F935A
:1032C0001F93CF93DF93FB01238121FD03C08FEF79
:1032D0009FEF2CC022FF16C0468157812481358183
:1032E0004217530744F4A081B1819D012F5F3F4FE6
:1032F000208331838C93268137812F5F3F4F268334
:10330000378314C08B01EC01FB010084F185E02DB3
:103310001995892BE1F6D80116968D919C911797F6
:10332000019616968D939C931797CE01DF91CF91BE
:103330001F910F910895FA01AA27283051F12031E9
:1033400081F1E8946F936E7F6E5F7F4F8F4F9F4F39
:10335000AF4FB1E03ED0B4E03CD0670F781F891F7B
:103360009A1FA11D680F791F8A1F911DA11D6A0F49
:10337000711D811D911DA11D20D009F468943F91FC
:103380002AE0269F11243019305D3193DEF6CF01FB
:103390000895462F4770405D4193B3E00FD0C9F7C1
:1033A000F6CF462F4F70405D4A3318F0495D31FD2E
:1033B0004052419302D0A9F7EACFB4E0A695979581
:1033C000879577956795BA95C9F700976105710557
:1033D00008959B01AC010A2E0694579547953795A1
:1033E0002795BA95C9F7620F731F841F951FA01DFB
:0633F0000895F894FFCFE0
:1033F60000F6020607207D4A6172616B3A2025734A
:0834060020636D20202020004E
:00000001FF
